:020000041000EA
:1000000000B5324B212058609868022188439860DF
:10001000D860186158612E4B002199600221596106
:100020000121F02299502B49196001219960352056
:1000300000F044F80222904214D00621196600F024
:1000400034F8196E01211966002018661A6600F04E
:100050002CF8196E196E196E052000F02FF8012189
:100060000842F9D1002199601B49196000215960AB
:100070001A491B48016001219960EB211966A021F2
:10008000196600F012F800219960164914480160C1
:100090000121996001BC002800D000471248134993
:1000A000086003C880F30888084703B5996A0420EC
:1000B0000142FBD001200142F8D103BD02B5186610
:1000C0001866FFF7F2FF186E186E02BD00000240BE
:1000D000000000180000070000035F00212200005C
:1000E000F4000018222000A00001001008ED00E03C
:1000F00000000000000000000000000074B24E7A12
:1001000000200420F7010010C3010010C5010010F9
:10011000C1010010C1010010C1010010C101001097
:10012000C1010010C1010010C1010010C701001081
:10013000C1010010C1010010C9010010CB01001065
:10014000CD010010CD010010CD010010CD01001037
:10015000CD010010CD010010CD010010CD01001027
:10016000CD010010CD010010CD010010CD01001017
:10017000CD010010CD010010CD010010CD01001007
:10018000CD010010CD010010CD010010CD010010F7
:10019000CD010010CD010010CD010010CD010010E7
:1001A000CD010010CD010010CD010010CD010010D7
:1001B000CD010010CD010010CD010010CD010010C7
:1001C00000BE00BE00BE00BE00BE00BEEFF3058054
:1001D000103800BEF2EB8871D83F011004400110C6
:1001E0003402001090A31AE700201F49086006C8D7
:1001F00081F3088810471D48006800282FD10DA4FE
:100200000ECC002902D000F012F8F9E71849194A7B
:10021000002000E001C19142FCD1174988471749ED
:1002200088471749884700BEFDE701C901C29A42C5
:10023000FBD3704704400110C0000020001A0020CA
:10024000445901100000042000000420445901100A
:10025000001004200010042000000000704709482E
:100260000AF00AF80047000008ED00E0000000D0A6
:10027000201A0020F0350020019000109D0500108C
:10028000BD8F00105756000006005250ABB36053AC
:10029000B035011006005250861C0302C035011013
:1002A000060052505422A29DD8350110050052502C
:1002B000DE65F46844590110F8B5C04610B5064C27
:1002C0002378002B07D1054B002B02D0044800E017
:1002D00000BF0123237010BD201D0020000000007E
:1002E000E8060110044B10B5002B03D00349044865
:1002F00000E000BF10BDC04600000000241D00202B
:10030000E806011010B5052000F0AEFB062000F055
:10031000ABFB012000F0A8FB022000F0A5FB0C20A5
:1003200000F0A2FB0A2000F09FFB0B2000F09CFBDA
:10033000112000F099FB122000F096FB042000F041
:1003400093FB032000F090FB082000F08DFB0720BA
:1003500000F08AFB1D2000F087FB1B2000F084FBCF
:100360001C2000F081FB1A2000F07EFB092000F029
:100370007BFB0D2000F078FB10BDF0B5DE46574644
:100380004E464546E0B5D022120654686409012362
:100390001C4061424C4101210C402401057810268B
:1003A000B246B5432C4304705468A4091C4065420E
:1003B0006C410C40640105781036B5432C43047041
:1003C000546864081C4065426C410C40A4010578E7
:1003D0004027B946BD432C4304705468A4081C4010
:1003E00065426C41E40105783F37B8463D402C43F7
:1003F00004705468240F1C4065426C410C40A400FA
:1004000007780425AF433C4304705468A40E1C4095
:1004100067427C410C40E40005780827BD432C432B
:1004200004705468E40E1C4025006C426C410C4082
:1004300064000578AB460225AC465D466746BD4381
:100440002C4304705468640F1C4025006C426C41BE
:100450000C4005789D432C4304705468240B1C40C9
:1004600025006C426C410C40240145785746BD4341
:100470002C4344705468A40A1C4025006C426C4113
:100480000C4064014578B5432C4344705468E40A39
:100490001C4025006C426C410C4064008578674626
:1004A000BD432C4384705468640C1C4025006C428E
:1004B0006C410C4085789D432C4384705468640AD9
:1004C0001C4025006C426C410C40A40145784F460D
:1004D000BD432C4344705468640B1C4025006C429F
:1004E0006C41E4014578A94645464F463D402C43C2
:1004F00044705468E4081C4025006C426C410C4078
:10050000A40045780427BD432C4344705468240953
:100510001C4025006C426C410C4045789D432C43A7
:1005200044705468240A1C4025006C426C410C4005
:10053000640045786746BD432C4344705468E40921
:100540001C4025006C426C410C40E40045780637A5
:10055000BD432C4344705268920C13405A4253419D
:100560000B4059018278B2430A4382709B00D2B299
:1005700004218A4313438370F0BCBB46B246A946AC
:10058000A046F0BD80231B01036043608360C3600D
:10059000704710B500F09CF810BD000000B583B0A6
:1005A0000BF072FD642007F0FBFD0D480BF030FDF1
:1005B0000C2000F059FAD0231B065B68DB0408D539
:1005C00001A8084B1B88038000F066F9002003B0E7
:1005D00000BD054809F050FE0300002108009847BF
:1005E000E8060110040701105542000010B5134B36
:1005F0001A78134C2178134B186800230FF0C7F9B1
:1006000023780133DBB223705BB2002B0DDB0B4B85
:100610001B783F2B04D90023094A1370074A137033
:10062000084B18680FF016FA10BD054B00221A701F
:10063000024A137801331370E9E7C046EE35002013
:10064000ED350020501D0020F0B585B01A4C1B4937
:1006500020000CF0CFFD03210E2006F027FC032123
:100660000F2006F023FC14200BF09AFB050000235A
:100670003C2221000FF028FA114E3560114F002462
:1006800002940194009400230F4A390028000FF0CF
:10069000F7FA3068029401941223009300230B4A66
:1006A00039000FF0EDFA002130680FF043FA30689E
:1006B0000FF0D0F905B0F0BD5011002040420F00FE
:1006C000501D002020070110080701101407011019
:1006D00010B50A4B1B78002B06D0094A094901F0D6
:1006E000AAFB002806D110BDFFF7AEFF034B012285
:1006F0001A70F8E7FFF77AFFF5E7C046E435002007
:10070000541D0020A08601000020704770477047EC
:100710007047000010B5041C03480460416082600B
:10072000C360FFF7F5FF10BD4433002070477047EA
:1007300010B512E00C4B9A6A0C4B1A600C480FF083
:100740004BFF00F0DBFB094C206805F079F92068CD
:1007500003F008FC2068FFF7EAFF064904480FF0A1
:100760006BFF0028E6D1ECE7004005409422002012
:10077000C01900201C2700207047704770470000F8
:10078000014B002018567047E00E002010B50020E5
:10079000FFF7F2FF0020FFF7F0FF0022002100200A
:1007A00008F0B4FB10BD000010B52F4B1B78002BD8
:1007B00030D02E492E480FF03FFF002832D12D486F
:1007C000FFF7DBFD2C4B1B78002B33D103F0DEFE53
:1007D0002A4C2068274905F0B3F9206801F0A6FAF1
:1007E00005F008FD002832D0244C2068244904F08C
:1007F0009FF82068234A244905F028FD234B1B78E5
:100800005BB2012B2AD008F02FFB1C4B1868FFF7B6
:10081000C0FE10BD00211E4808F06CFB124B0122E7
:100820001A70C6E71B4B9A6A144B1A6010480FF0F7
:10083000D3FEC4E70F48FFF7A1FF08F015FB0F4CEC
:10084000206801F073FA206801F0A8FAE1E70B4B89
:1008500018680D4A0B4900F083FCCFE7074B186876
:1008600001F09CFACFE7C046DC35002018270020B5
:10087000C0190020CC1D0020BA3500209422002091
:10088000941D0020D81D0020B41D0020E00E002083
:100890004C1D00000040054070B5051E00D1C4E0AD
:1008A00001F0C4FA0400FFF72DFD6048FFF765FD75
:1008B00000F080FB002831D05C4E33005C4A5D497B
:1008C0005D4804F0D3FE05F00FF9B378DB062AD4B7
:1008D000FFF71DFF02F0C6F9E3B2012B29D0022B6E
:1008E0002CD001242C57631C2FD00022AA56534B26
:1008F0001A704E4B1B789A062BD45A063BD4DA0654
:100900003BD45AB2002A3ADB5A073AD40A221A4098
:10091000022A38D01B071DD503241BE0322148488A
:1009200001F07AF9C8E70622002146480BF02CFABC
:10093000CEE7424B02221A700024DAE723041B0F91
:100940003E4A13702405240FD3E73F4B02241C5763
:10095000CBE706243C4AE2235B00D65C374B1B788E
:100960005BB2013311D06425E3B2062B40D8A3005B
:10097000364AD3589F460124ECE70024EAE70224D4
:10098000E8E70524E6E70424E4E701F02BFA002871
:1009900004D12A4B02221A704625E5E7642001F0B3
:1009A00005FA264B01221A706425DDE7284832211A
:1009B00001F032F92900300001F040F91F4B00210D
:1009C0005956200000F0DCFB184B9B789B0727D47E
:1009D000204A1649200003F081FC0BF06FFE1E48F0
:1009E0000BF05AFEFFF7E0FEFCE7FF200006DEE713
:1009F0001A48DCE7FF200002D9E7104B00221A70EA
:100A0000FF2000041925D2E70C4B00221A7014486D
:100A10000F25CCE7094B00221A7012481925C6E7AA
:100A2000094B9C7000F0C0FAD2E770BDCC1D0020CD
:100A3000941D0020B41D0020A41D0020E00E002005
:100A40000000FF4D9C1C0020201B00200C100110FA
:100A500000F115FFD81D00203107001000A1A1A151
:100A600000FF61000000FFE610B5040006F050FA38
:100A700000220121200006F031FA0123A340D022F8
:100A80001206936210BD0000094ABD235B00D35CCF
:100A90001A1C312B00D83222054BBD2149005A5473
:100AA000DA787A39FF398A43DA709B221A727047F2
:100AB000201B002070B5050014006A4B138001292B
:100AC00000D070BD0223C3569370D01CE91C0622CF
:100AD0000BF060F9EB68E3602B6923616B6963617C
:100AE000AB69A36120001C3029001C3120220BF0CF
:100AF00051F920003C3029003C3120220BF04AF90A
:100B000020005C3029005C3120220BF043F92000EA
:100B10007C3029007C3120220BF03CF920009C30F5
:100B200029009C3106220BF035F92000A230290063
:100B3000A23106220BF02EF92000A8302900A8319E
:100B400030220BF027F920002930FF302900D8315E
:100B500010220BF01FF920003930FF302900E83156
:100B600010220BF017F920004930FF302900F8312E
:100B700010220BF00FF920005930FF302900093105
:100B8000FF3110220BF006F920006930FF302900F8
:100B90001931FF3110220BF0FDF894235B00EA5C61
:100BA0005033E2542A23FF33EA5C7A23FF33E254C2
:100BB0004F3BEA5C5033E2542C23FF33EA5C7C2346
:100BC000FF33E25420007D30FF3029002D31FF310A
:100BD00006220BF0DFF820008530FF302900353188
:100BE000FF3120220BF0D6F82000A530FF3029007D
:100BF0005531FF3120220BF0CDF8BA235B00EA5CBF
:100C00005033E2542000C930FF3029007931FF31E0
:100C100018220BF0BFF8C8235B00EA5C5033E254A3
:100C20004E3BEA5A5033E2524E3BEA5A5033E252BC
:100C30004E3BEA5A5033E2524E3BEA5A5033E252AC
:100C40004E3BEA5A5033E2524E3BEA5A5033E2529C
:100C50004E3BEA5A5033E2524E3BEA5A5033E2528C
:100C60002FE7C04602A0FFFF064B984204D0064B78
:100C7000984203D1022070470120FCE70120404246
:100C8000F9E7C04601A0000002A0000010B512481C
:100C90000BF0EEF9002407E0104B5B18D9781048F0
:100CA0000BF0E6F90134E4B2052C0DD80BF0DAFFB5
:100CB0002100C0B2094A1219D070002CECD11300E7
:100CC00001229043D870E7E7044B9B221A720A2056
:100CD0000BF06AF910BDC04628100110201B00203F
:100CE00038100110F0B5DE4657464E464546E0B591
:100CF0006F4CA544FC256D002A00002102A80BF0D2
:100D000043F86C4B02AA1380059B0193DB0FDB07B2
:100D10008022120113430593069B0193DB0FDB072F
:100D200013430693079B0193DB0FDB0713430793E2
:100D3000089B0193DB0FDB071A4308925E4F0A976B
:100D40005E4E0B965E4C0C945E480D905E490E9183
:100D50005E4A0F925E4B109312971396149415905F
:100D60001691179218935B4B19931A931B931C932C
:100D70001D931E931F9320932193802202A98B50D1
:100D800004328B5004328B5004328B5004328B501F
:100D900004328B5004328B50FF231B049A46A82345
:100DA0000A005146D1504C4B9B46AC235946D1507A
:100DB0004A4B9946B0234946D150FF231B0698461B
:100DC000B4234146D150FF2636020433D6500433B3
:100DD000434A02A9CA50434F04330A00CF50043398
:100DE0005146D15004334146D1500433D6500433D8
:100DF0004946D1500433D6503B4BD82202A98B50E0
:100E000004328B5004328B5004328B50E823CF5085
:100E1000B63B7A22FF328B5401328B54173AFF3A99
:100E2000F121490002A8425202314352023142529A
:100E30008532FF32010083522C4C2A0020000AF038
:100E4000A9FF002003F010FA012003F00DFA03209F
:100E500003F00AFA042003F007FA052003F004FA6D
:100E600020009C30062200210AF08EFF2000A230D4
:100E7000062200210AF088FFFFF708FFE4235B0049
:100E80005246E25004335A46E25004334A46E25096
:100E900004334246E2500433E6500433E7508123E2
:100EA0009B009D44F0BCBB46B246A946A046F0BD9F
:100EB000FCFDFFFF02A0FFFF000034420000B4422F
:100EC00000000743000034430000614300008743F3
:100ED00000809D43000016440000FF4D0000FFE627
:100EE00000F115FF00FF610000A1A1A1201B00205F
:100EF000014B18787047C046E635002070B5204C8D
:100F0000A544204B1B78002B03D180235B019D441B
:100F100070BD0BF0EBFBEFF3108672B61A4B1B782B
:100F2000002B24D1194C00230093194A002101A859
:100F30000AF02AFFFC225200164968460AF02AFFEE
:100F400080256D01290020000FF07EFB2A006946F4
:100F500020000FF061FB86F310880BF0D1FB0E4BE5
:100F60001B78002B06D1074B00221A70CDE7962480
:100F70006403D8E705F0FEF9074B00221A70F2E788
:100F800000F0FFFFD2350020E635002000D012002F
:100F9000FC0F0000201B0020DD350020014B01224A
:100FA0001A707047DD350020014B01221A7070471E
:100FB000D235002070B5394B1888394B1D88FFF7A2
:100FC00053FE04002800FFF74FFE0500631C0BD002
:100FD000022C0FD0022D0DD0012C2CDD012D2ADD8D
:100FE0000023002200262CE0431CF1D10023002224
:100FF000012626E0022C05D0022D0FD0002300226E
:1010000000261EE0FC225200244926480AF0C2FEB7
:10101000254B00221A700023002612E0FC22520009
:101020001F4920480AF0B6FE1F4B01221A70002308
:101030000022002605E00123012C15DDDBB2012290
:101040000026002E12D1002A23D0002B18D1164BD7
:1010500001221A70134A21001048FFF72BFD0020CF
:10106000FFF7A2FF300070BD0023E7E70E4B002220
:101070001A70FFF737FE0020FFF796FF0026F1E712
:10108000094B00221A70074A29000548FFF712FD94
:10109000E5E7FFF7F9FC0126E4E7C04600D01210AF
:1010A00000C01210201B0020E635002010B5031CE4
:1010B000642800D9642303497A22FF328B54FFF756
:1010C00026FB10BD201B002010B5022817D008D821
:1010D00000280DD001280FD10B4AF2235B00D1521A
:1010E0000AE0032808D1084AF4235B00D15203E048
:1010F000054AF1235B00D15203F04AFF10BD024ABA
:10110000F3235B00D152F7E7201B002030B50F4CD2
:1011100040004508E068C00FC0072843E060490070
:1011200048082169C90FC9070143216152005108CC
:101130006269D20FD2070A4362615B005A08A36951
:10114000DB0FDB071343A36130BDC046201B00202B
:10115000062800DD0020014B98707047201B0020FE
:1011600010B5034B1B68002B00D0984710BDC0463C
:1011700080200020014B002018567047C135002008
:1011800010B588B00400234B18700C22002105A86C
:101190000AF0FAFD1022002101A80AF0F5FDE3B2E1
:1011A000062B03D8A4001C4B1B599F461B4B1C4A03
:1011B0001A60002000F006FF08B010BD174B184A57
:1011C0001A60062000F0FEFEF6E7144B144A1A607F
:1011D000012000F0F7FEEFE7104B114A1A600220E1
:1011E00000F0F0FEE8E70D4B0E4A1A6001AA05A9CF
:1011F0000020FFF7B5FFDFE7084B0B4A1A6001AA92
:1012000005A90020FFF7ACFFD6E7044B074A1A6098
:10121000D2E7C046C13500206410011080200020B4
:101220007520001081600010836000108560001040
:10123000F0B5C64600B590B004000D0016001F00C2
:1012400016AB1B789846494B984200D188E007219D
:10125000380005F02BFE012300933A0029002000FE
:101260000BF0ECFD1022002108A80AF08DFD802370
:101270005B020893F8235B0209938023DB020A9345
:10128000C0231B030A93102208A904A80AF082FDB8
:10129000F31C059A039236491140F20111431B03D6
:1012A00019430591079B0393DB00DB08802292051D
:1012B000134307932F4B19400591102204A90CA842
:1012C0000AF068FD0F9B03932B4A1A40BF02174395
:1012D0000F974346002B45D020220E9B03932749AE
:1012E000194080239B020B435206F82189050A40CE
:1012F00013430E939B009B088022D20513430E9349
:10130000052007F013FD1E4909F00AF80AF06FFBEB
:1013100080460AF0C5FB87B2002F25D038000AF0BE
:1013200066FB011C40460AF0EEFA8721C9050AF067
:101330000AFB0AF0B5FBC0B200023F0407430C975A
:101340000CAB3200290020000BF0CAFD22680123FB
:10135000AB409A431343236010B080BCB846F0BD45
:10136000062175E71822B8E70020E5E700002050C5
:101370007F00FEFFFFFFFF9FFF83FFFFFFFFF5C121
:101380000050C300014B01221A707047CC35002079
:1013900070B5254B1B78002B17D1244B00221A70F7
:1013A000214B01321A7000241F2C09D80BF05AFC73
:1013B000062108F0B5FF1E4B19550134E4B2F3E7DE
:1013C0001C4B00221A70002428E01A4B1B78002BBB
:1013D000F9D1194B1B789A009B18FA2B00D9FA23E4
:1013E000FF221A40FF239B1A9BB2144A1380144A0F
:1013F0001380104B01221A70E5E70D4D2B5D7233FF
:101400009B00104A9958A2000F4BD1500BF02AFCB8
:10141000062108F085FF29550134E4B21F2CECD9D0
:10142000FFF7B0FF70BDC046CB350020BE350020B1
:1014300098200020050F0020030F0020B035002069
:10144000AC350020201B002064250020034B1980B0
:10145000034B1860034B00221A707047AE35002012
:1014600058240020C935002070B505000C00008804
:101470000AF0BDFA1B490AF050FA1B490AF063FA58
:101480000AF00EFBC2B22B79A978C943C9B25943FD
:10149000090A5B1ADBB23F2528402D1AEDB25843EA
:1014A00080096B439B11DBB20818C0B2CB18DBB2CA
:1014B0003F2A10D9403AD2B23F2A06D81A060B0664
:1014C0001B0A0002134318430AE0090600041B022A
:1014D0000843184304E000061B04090218430843AC
:1014E000206070BD00007F4300003F43F8B5CE464A
:1014F000474680B50400234B1D78002D05D10023FD
:101500000360C0BCB946B046F8BD642DF9D08778F9
:10151000E678B81963789846C0180AF06DFA1A4947
:101520000AF0FBF9814628000AF061FA17490AF02F
:10153000F4F9051C011C48460AF044FA0028E0D1E1
:101540004946281C0AF0E9F9051C38000AF04FFA50
:10155000291C0AF0F8F90AF0A3FAA07030000AF08A
:1015600046FA291C0AF0EFF90AF09AFAE0704046B0
:101570000AF03DFA291C0AF0E6F90AF091FA6070C7
:10158000BFE7C046020F002000007F430000C842B2
:10159000F0B5D6464F464646C0B504000368002B5A
:1015A00035D083789846C778D819667880190AF0BC
:1015B00023FA051C40460AF01AFA8046291C0AF054
:1015C000ACF9824638000AF012FA071C291C0AF00E
:1015D000A4F9814630000AF00AFA061C291C0AF018
:1015E0009CF9051C514640460AF0ADF90AF058FA3C
:1015F000A0704946381C0AF0A6F90AF051FAE070CA
:10160000291C301C0AF09FF90AF04AFA6070E0BC0D
:10161000BA46B146A846F0BD30B585B01D4B1B7823
:10162000002B0FD100241F2C09D80BF01BFBFF212E
:1016300008F076FE184B19550134E4B2F3E7154B68
:1016400001221A7000241FE0134D2B5D134A1078FD
:10165000C018FF2108F03CFEC9B2295502A801803C
:10166000FF23438083800023019301A9FFF7FCFE41
:1016700001A8FFF73BFF0A4BA000019AC250C01817
:10168000FFF786FF0134E4B21F2CDDD9FFF77AFEA5
:1016900005B030BDCB35002014240020030F0020FE
:1016A0006425002000220AE0930006495958064BA1
:1016B0005B68DB03FBD4044B19610132D2B21F2AF1
:1016C000F2D970475C24002000002050F8B5DE46B7
:1016D00057464E464546E0B506000D00141C80787E
:1016E0000AF085F98046F0780AF081F9071C7078D5
:1016F0000AF07DF9061CA8780AF079F98346E878A3
:101700000AF075F9824668780AF071F98146414617
:1017100058460AF0F8F8211C0AF015F941460AF07B
:10172000F7F8051C391C50460AF0EDF8211C0AF0A8
:101730000AF9391C0AF0ECF8071C311C48460AF07B
:10174000E2F8211C0AF0FFF8311C0AF0E1F8061C4F
:10175000281C0AF0A5F9C5B2381C0AF0A1F9C4B2D8
:10176000301C0AF09DF9C0B22D0400022406284363
:101770002043F0BCBB46B246A946A046F8BD0000D7
:1017800010B5044B1870044B00221A70FFF7FAFDD5
:1017900010BDC046CE350020CB350020F8B5274B14
:1017A0001D8828000AF028F9011CFE2080050AF097
:1017B000B4F8041C224B1B78002B0BD0802221494B
:1017C00021480AF0E7FA0023204A13701C4A1370DC
:1017D0001F4A13701D4B1E78B54204D21C4B18785B
:1017E00000281ED0F8BD30000AF001F9211C0AF0D3
:1017F000AAF8051C00240BE0A70016497918124826
:1018000038182A1CFFF762FF0E4BD8510134E4B29E
:101810001F2CF1D901360D4B1E70FFF743FF00203E
:10182000E0E780220B4907480AF0B4FAFFF73AFFD5
:10183000074B01221A700120D4E7C046AC350020C6
:10184000CC3500205C240020E4240020070F002079
:10185000040F002064250020F0B5C64600B5060040
:101860000F001500984600240AE0335D9B004246B5
:10187000EA50305D80002818FFF78AFE0134E4B298
:10188000BC42F2D380BCB846F0BD0000031C642803
:1018900000D96423014A13707047C046020F00202C
:1018A00030B583B0050000240CE0019501A8FFF7D6
:1018B0001DFE064BA000019AC250C018FFF768FE3B
:1018C0000134E4B21F2CF0D903B030BD64250020F0
:1018D00010B509480388094A12789B18FF22134063
:1018E0000380074C2100FFF7BFFD2068FFF7D8FFFA
:1018F000FFF748FD10BDC046FC0E0020030F00207E
:101900001024002010B51A4B1B78002B17D1194A50
:101910001370174A01211170174A1370154C237860
:1019200072339B00154A9858FFF7BAFF20780130B0
:10193000062108F0CDFC2170FFF724FD10BD0E4BF1
:101940001B78002BEAD10E4B1B789A009B18FA2BC0
:1019500000D9FA23FF221A40FF239B1A9BB2094A9F
:101960001380094A1380044B01221A70D6E7C0463F
:10197000CB350020BE350020060F0020201B0020A4
:10198000030F0020B0350020AC35002010B50F4B00
:101990001B78002B10D10E4B1B68002B02D10C4B77
:1019A0000C4A1A600A4B1868FFF77AFFFFF7EAFC47
:1019B000064B01221A7010BD0020FFF771FFFFF7E0
:1019C000E1FC024B00221A70F5E7C046E335002027
:1019D000DC2400200000FFE610B5164B1C78002C1C
:1019E00005D0154B1B78002B17D0200010BD80228E
:1019F000124913480AF0CEF9124B1868FFF750FF4E
:101A0000114B1A88114B1A80FFF7BCFC094B0122BD
:101A10001A70094B00221A70E7E7802208490C4827
:101A20000AF0B8F9FFF7AEFC034A137801331370DC
:101A3000DBE7C046C9350020E93500205C240020E2
:101A4000C4320020E0240020AE350020AC35002058
:101A50006425002070B504000D000F2803D8830012
:101A60002749CB589F460124264E2AE00424264EBF
:101A700027E00124254E24E00124254E21E0012405
:101A8000244E1EE00124244E1BE00124234E18E0C6
:101A90000124234E15E00124224E12E00124224E9F
:101AA0000FE00124214E0CE00124214E09E0012425
:101AB000204E06E00124204E03E001241F4E00E0EA
:101AC0001F4E002A12D02B001E4A21003000FFF7C3
:101AD000C3FE2B001C4A21003000FFF7BDFE2B0087
:101AE0001A4A21003000FFF7B7FE70BD2B00164ADE
:101AF00021003000FFF7B0FEFFF744FCF5E7C046D9
:101B00008010011004110110E4100110F4100110F4
:101B1000E0100110E8100110FC1001100C11011070
:101B200008110110D8100110DC100110EC10011088
:101B3000101101100011011014110110F810011002
:101B4000F0100110E4240020642500205C24002013
:101B500070B50C4B196840220B480AF01BF90024A1
:101B60000CE0A300084DED182800FFF7BFFC296822
:101B700000222000FFF76EFF0134E4B20F2CF0D9F1
:101B800070BDC046E4250020E825002010B5024BBA
:101B90001860FFF7DDFF10BDE425002010B5074BEE
:101BA0001B78002B00D010BD0548FFF7EFFFFFF7B3
:101BB000E9FB024B01221A70F5E7C046CB35002045
:101BC000C81B00200F4AF0235B00D35C834209D07E
:101BD000002B03D1E133FF330521D154094AF0230F
:101BE0005B00D054074AF0235B00D25C064B1A70AE
:101BF0001523064A1380064A1380064B00221A70EA
:101C00007047C046201B0020030F0020B035002085
:101C1000AC350020CB35002010B5054B18604908C5
:101C2000044C2000FFF712FC034B1C6010BDC046A3
:101C3000E0240020D91900105824002070B582B08B
:101C400004000D00254B1B78002B0CD0244B1C707E
:101C50000023244A1370244A1370052C15D8A400BD
:101C6000224B1B599F46224E224930000BF0CAF8E6
:101C700002000023009300213000FFF7D9FA174B30
:101C800001221A70FFF70EFDE0E71B4B1B4A1A609A
:101C90001B4AF0235B00D05CFFF794FF002D15DAA0
:101CA00002B070BD144B174A1A60F1E7124B164A86
:101CB0001A60EDE7104B154A1A60E9E70E4B144A1B
:101CC0001A60E5E70C4B134A1A60E1E7FF2D00DDCF
:101CD000FF25E8B2FFF7DAFDE2E7C046CD35002088
:101CE000CA350020CB350020CF350020C0100110B0
:101CF0000000205018110110542400209D1B0010DA
:101D0000201B0020D1180010191600108D1900108A
:101D1000051900109113001010B5034B18606421D1
:101D20000520FFF78BFF10BDDC24002010B5144AFE
:101D3000144900F080F8002800D110BDFFF72EFDF7
:101D4000002803D1104B1B78002BF6D00F4B1B68DB
:101D5000002B0ED098470028EFD000240B4B1C60BE
:101D60000B4AF0235B00D05CFFF72CFF094B1C7083
:101D7000E3E7094B1B68002BDFD09847DDE7C0463F
:101D8000F03100201A410000CF35002058240020F7
:101D9000201B0020CB35002054240020704710B5B4
:101DA0000020FEF7E9FCFEF7F1FC10BD00B583B0A2
:101DB00023280AD8C0B20538C0B27F23184001AB2F
:101DC00004221A70587003B000BDAF235B00984224
:101DD00000D9180028380A2108F07AFAC0B21F305A
:101DE000C0B2EAE710B502480AF012F9012010BDAE
:101DF00028110110072804D88000024B9C4660443B
:101E0000016070470C80054010B5072802D90024F6
:101E1000200010BD8000044B9C46604404680021F3
:101E20000520FFF7E7FFF3E70C80054010B505201C
:101E3000FFF7EAFF10BD10605368834205D9C31A4B
:101E4000013B8B4205D200207047834204D2C31A63
:101E5000F7E750600120F7E70020F5E730B518609C
:101E6000002A0BD15C6884420BD9041B013C00257D
:101E7000002D0BD1A14209D9100030BD58600020BF
:101E8000FBE7844205D2041B0025F1E758600120DE
:101E9000F3E71000F1E7000010B5FFF76BF9022837
:101EA00001D0024810BD0248FCE7C0466011011095
:101EB0005012011010B500200CF038FD10BD0000CC
:101EC00010B5102106480EF0C7FB002800D110BD48
:101ED000044B01221A7002480EF07EFBF7E7C04661
:101EE000C8190020DA35002010B5102106480EF080
:101EF000B3FB002800D110BD044B00221A70024829
:101F00000EF06AFBF7E7C046C8190020DA3500205A
:101F100070B5050064210D480EF04EFB041E09D17A
:101F20000B4B22000B492800FFF798FF051E08D134
:101F3000200070BD084B1C78E4B204480EF04CFB46
:101F4000EEE7FFF7BDFF2C00F2E7C046C8190020FE
:101F500054330020A0860100DA35002003780133D5
:101F60000370044B1B785BB2022B01D00248704710
:101F70000248FCE7C40F002094130110CC14011098
:101F80000C4B18600C4B98420BD00C4B98420CD069
:101F9000FA235B00984200D07047094B01221A6077
:101FA000FAE7074B04221A60F6E7054B08221A608D
:101FB000F2E7C0464C270020461000008D200000AC
:101FC0004427002010B50400002001F0C5FF022CBA
:101FD0002CD0062C1DD0012C10D0012001F0BCFF0C
:101FE0001848FFF7CDFF184B184A1A60184B194ACA
:101FF0001A60194B1C700DF0A5F810BDFA204000B6
:10200000FFF7BEFF104B154A1A60114B144A1A60B5
:10201000EFE7012001F0A0FF1248FFF7B1FF0A4BE4
:10202000114A1A600A4B0B4A1A60E2E7FA20400094
:10203000FFF7A6FF044B0D4A1A60054B0C4A1A60C5
:10204000D7E7C0468D200000482700208960001097
:1020500050270020B51E0010C40F0020516B001047
:102060001127001046100000D96C0010255C0010EC
:102070009D2B0010F8B506000C0015000120002172
:1020800040420BF0C7FF234B9F6C234B1B68BB42A6
:102090001CD2FB1A214A12689A4202D8204B012214
:1020A0001A70204B1968204A3000FFF7C4FE002840
:1020B00002D01E4B01221A701D4B1B78002B0AD137
:1020C0001C4B1B6898471A4B1870F8BDFB1A1A4A2C
:1020D00094466344DEE73000FFF71AFF0028F4D08F
:1020E0000F4B1B78002BF0D0104B1B78002BECD043
:1020F000094B1F6000230A4A13700C4A13700C4AE4
:102100001370FFF7F1FE0D4B1B6829002000984764
:10211000DBE7C04600001150E82D002044270020D6
:10212000E53500204C270020A4350020EC350020A8
:10213000DB35002050270020FF0700004827002043
:10214000084B1B785BB2022B07D0062B07D0012B64
:1021500001D0054870470548FCE70548FAE70548FF
:10216000F8E7C046C40F0020D81A0110DC13011094
:10217000B814011050230110084B1B785BB2022BDE
:1021800007D0062B07D0012B01D005487047054822
:10219000FCE70548FAE70548F8E7C046C40F002009
:1021A000981A0110AC1301108C1401102423011093
:1021B0000020704710B5134B1B785BB2022B13D075
:1021C000062B18D0002B05D00B78002B0FD1FFF772
:1021D00077FE0CE00B78302B03D0212B01D0812B24
:1021E00005D1FFF76DFE02E00B78212B00D010BD6A
:1021F000FFF766FEFBE70B78012BF8D1FFF760FED7
:10220000F5E7C046C40F002070B504AC25882E4CFD
:10221000247864B2012C2DD0022C12D0002C00D0D6
:1022200070BD0029FCD1002AFAD11878102804D0FA
:102230002A00190001F0ACF8F2E7981C00F0D8FD74
:10224000EEE70029ECD1002AEAD11A78112A05D04C
:10225000132AE5D11D4809F00BFFE1E75B78002B5D
:1022600006D01B490B1C1B4A1B48FEF753FAD7E745
:102270000021F7E70029D3D1002AD1D11A78002A0A
:10228000CED15A78082ACBD1DA78002A02D119792E
:10229000002911D01B79101C9A4200D2181CC0B220
:1022A00009F0A5FB0D4909F038FB011C031C094A84
:1022B0000948FEF72FFAB3E70020031C021C011C9B
:1022C000FEF728FAACE7C046C40F00201413011033
:1022D0006666263F000020420000F04200007F4377
:1022E000064B1B785BB2022B03D0062B03D10448AC
:1022F00070470448FCE70448FAE7C046C40F0020D2
:102300006423011020140110EC1A011070B5EE289E
:1023100024D0002825D080001E4BC55828000DF081
:10232000E7FFC0B21F2800D91F20002327E05A1C56
:10233000194CA15C0902E25C0A434400174962524D
:1023400002330130112BF2D9154A144B13CB13C2AF
:1023500011001A680A609B888B8019E00020002316
:10236000F0E70C4B196802220E4809F013FD01201A
:1023700007E05A1CEC5C5100094BCC52D3B2984296
:10238000F7D801304000C0239B001843044B18804D
:10239000034870BDE80E0020581301103C1D0020BA
:1023A000C0200020C220002000B591B04022694624
:1023B00000200CF049FD00200CF05CFD064B1B7862
:1023C0005BB2002B01D011B000BD044809F020FE23
:1023D000684603F0F3FFF6E7C40F00202C1301104A
:1023E000F0B583B005001400012966D113785B06AF
:1023F0009B0F012B58D0022B03D0002B01D00020C3
:102400005CE06378022B24D0072B03D0012B19D07A
:10241000002053E0227963791B021343042B03D07D
:10242000052B08D0002049E02433264A210028004B
:102430000BF014FF42E08D33234A210028000BF0FB
:102440000DFF3BE02723214A210028000BF006FF67
:1024500034E0227963791B021343072B30D11C4BE4
:102460001B785BB2022B0FD06B469F1D194E0222C8
:102470003100380009F08EFC3B883200083A210018
:1024800028000BF0EBFE19E06B469F1D124E022256
:102490003100380009F07EFC3B883200083A210008
:1024A00028000BF0DBFE09E051780C4809F0E0FD54
:1024B000210028000BF0B6FE00E0012003B0F0BDC3
:1024C0000020FBE79C0F0020080F00206C13011078
:1024D000C40F0020A41101107C120110441301103C
:1024E000012815D0022907D000290BD1022A29D0B2
:1024F000002A29D006207047022A1FD0002A1FD0A8
:102500000800F8E7022A21D0002A21D00820F2E7AB
:10251000022907D000290BD1022A1FD0002A1FD080
:102520000720E8E7022A15D0002A15D00320E2E7A9
:10253000022AE0D0002A15D00020DCE70120DAE7EB
:102540000320D8E70720D6E70520D4E70020D2E70C
:102550000420D0E71000CEE70420CCE70820CAE72B
:102560000620C8E70520C6E70120704710B5842281
:102570000021024809F008FC10BDC046702B002065
:1025800010B50020FFF7F2FF10BD0000F0B5C64601
:1025900000B580460D008B795D2B24D10B79DF00CF
:1025A000FF1ABFB21937BFB2974221D80C780C1965
:1025B000002605E0104A53700136F6B22378E4187D
:1025C0002B79B34210D96378052BF7D1210040460F
:1025D0000BF04EFA00280DD0A378DA09012AE9D0D1
:1025E000054A9370E8E70027380080BCB846F0BD84
:1025F0000027F9E70027F7E7702B002030B583B0FC
:10260000040014484078884206D0124A92788A42E0
:102610000CD0012003B030BD0F4A002A18D09AB266
:102620000E490020FFF7C6FD0120F3E70C4D9BB2D9
:1026300000932B00002200210020FFF7E5FD2B0076
:10264000443B997840232A0020000BF085FAE1E70B
:102650000120DFE7702B0020B5210010742B002033
:10266000B42B002010B50BF067F9002803D100232C
:10267000002B08D110BD0BF067F9002801D1012310
:10268000F6E70023F4E70B4B997800200BF0A0FA53
:102690000028EFD1074CA1780BF036FA2200443223
:1026A000A178402300200BF057FAA17800200BF00E
:1026B0003FFADFE7702B002070B505000C000BF02F
:1026C00043F9002806D1812100200BF01DFA0028D3
:1026D00003D170BD0BF040F9F5E7231C402C00D965
:1026E00040239CB2094E22002900300009F052FB21
:1026F000351F69782300320000200BF02DFA69782D
:1027000000200BF015FAFFF7ADFFE2E7742B002075
:1027100010B5104B5C780BF00FF9002806D10023A0
:10272000002B13D0002C09D1002010E00BF00CF985
:10273000002801D10123F3E70023F1E72100002065
:102740000BF046FA002803D1013000E0002010BD54
:102750000020FCE7702B002010B53C22002102482D
:1027600009F012FB10BDC0464021002010B500202A
:10277000FFF7F2FF10BD0000F0B583B006000F00B8
:102780001500FEF7F7FC02284CD13B79DC00E41A77
:10279000A4B21234A4B2AC4248D80023002B09D012
:1027A0000025002D44D0397879184B78212B11D091
:1027B000002438E01A01D21A92001F488218527879
:1027C000002A02D00133DBB2E8E71A01D11A8900EE
:1027D0004518E6E7A9630B78C9183A796B1C019391
:1027E000AB1C0093032330000BF05CF9002821D0D0
:1027F000BB79012B13D001232B71BB782B70AA6BF3
:10280000D179137A1B020B43EB80A97800290AD0F7
:102810002A003032062330000BF09EF903E0FB79EA
:10282000EB70E8E70024200003B0F0BD0024FAE7D5
:102830000024F8E70024F6E74021002070B582B0BC
:1028400005001D4C002000280AD0002830D16278F5
:102850008A4213D0A2788A421AD0012002B070BDF9
:102860000401241AA400144A1419A2788A42ECD054
:1028700062788A42E9D00130C0B2E4E70F4A002A08
:1028800018D0210008319AB2FFF794FC0120E5E747
:10289000260030369BB20093330000220021FFF760
:1028A000B3FCA1780623320028000BF055F9D5E7D8
:1028B0000020D3E70120D1E740210020B5210010FE
:1028C000F0B5C64600B582B00600150012781F2389
:1028D0001340012B00D01FE128790024002C0DD0DB
:1028E000FF24002C00D01CE12700602318001040BA
:1028F000134239D101290BD001200EE123011B1B0A
:102900009B008E4FDB5D9842EBD00134E4B2E5E7EB
:10291000EA786B78062B06D0062B00D005E1222A38
:1029200012D00020F9E0212AF6D123011F1BBF009D
:10293000824BDF19BA6B002A00D1F4E0137829002A
:1029400030000BF08BFCE8E02000FFF7C9FC020030
:102950003B01DF1BBF00794BDF19FB8829003000EA
:102960000BF07CFC0120D8E0202800D0DFE06B7861
:102970000B2B00D9DDE09B00714AD3589F460129FB
:1029800001D00120C9E0EA78A97823011B1B9B0034
:1029900008336A4FFF18A879EB791B020343181C10
:1029A000252B00D9252080B2002909D0012B16D96A
:1029B0007B1C9C463970013880B20123984602E0A6
:1029C000BC4600239846009063462000FFF7F0FBCA
:1029D000030043449BB2002B05D100209DE0BC4680
:1029E00000239846EFE73A00290030000BF036FC50
:1029F000012092E0012903D0032915D001208CE0A9
:102A0000AA79EB791B021343062B01D9002084E03D
:102A10002201121B9200303248498A1829003000E6
:102A20000BF01CFC012078E0EA78A97823011B1B3D
:102A30009B0030334148C318AE79E8790002304337
:102A4000051C062800D90625ADB2002904D00128AE
:102A500002D91878884205D000952000FFF7D4FBF2
:102A600001205AE00133013DADB2F5E7012901D063
:102A7000012052E0E97823011F1BBF002F4BDF1913
:102A80007971304B002B04D0200000E000BF0028FB
:102A900043D0290030000BF0C5FB01203DE00129A7
:102AA00001D0012039E02201171BBF00234AD219AF
:102AB00005320123290030000BF0D0FB01202CE06F
:102AC000012901D0012028E02201171BBF001B4A69
:102AD000D21904320123290030000BF0BFFB012082
:102AE0001BE0012903D0032907D0012015E02900AC
:102AF00030000BF097FB01200FE0A97823011F1B8A
:102B0000BF000E4BDF1939710F4B002B13D0200083
:102B100000E000BF012000E0002002B080BCB84609
:102B2000F0BD0020F9E70020F7E70020F5E70020DE
:102B3000F3E70020F1E70120EFE7C0464021002045
:102B4000F0130110000000000000000010B50301A8
:102B5000181A8000104B181844780AF0EDFE00286F
:102B600006D10023002B13D0002C09D1002010E047
:102B70000AF0EAFE002801D10123F3E70023F1E780
:102B8000210000200BF024F8002803D1013000E0E0
:102B9000002010BD0020FCE74021002010B50020DF
:102BA000FFF7D4FF10BD0000F8B504000F001600B9
:102BB0001D0003011B1A9B001F4AD31859780020DF
:102BC0000AF0A2FF002825D0002F24D02B1C242D92
:102BD00000D924239DB2184A2301191B89005118DA
:102BE0000F721B1B9B000833D01801302A003100E4
:102BF00009F0D0F80135ADB20F4B2001021B920055
:102C000008329A18001B8000181841782B00002009
:102C10000AF0A2FFF8BD2B1C252D00D925239DB25B
:102C20002001001B80000830034B18182A003100D7
:102C300009F0B0F8E0E7C0464021002010B51300CD
:102C40000A0001000020FFF7AFFF10BD1070031253
:102C50000F20184050700B011843507009119170EB
:102C60007047000070B5124D802424012A00210015
:102C70002000FFF7EBFFEA1C21002000FFF7E6FF32
:102C8000AA1D21002000FFF7E1FF2A0009322100E0
:102C90002000FFF7DBFF2A000C3221002000FFF7A5
:102CA000D5FF2A000F3221002000FFF7CFFF70BDB3
:102CB0007835002010B540220021024809F064F860
:102CC00010BDC04688260020014B18707047C046D2
:102CD000D5350020014B18737047C0468826002068
:102CE000014B58737047C04688260020074A0021D0
:102CF000535E107806490870023399B21BB21380F4
:102D0000FF2B01DDFF3911807047C046B43500202C
:102D100088260020024B1A78024B5A707047C04632
:102D20003C16011088260020064B04229A732F328D
:102D3000DA73303A1A74013A5A74012119765A76C4
:102D40007047C0468826002010B5C4B2000A002390
:102D500007E019000E31044A545401315054023333
:102D6000DBB20D2BF5D910BD8826002010B503006D
:102D70007F2800D97F2080B2002B08D008F037FED2
:102D8000044908F0E0FD044908F0C2FD10BD024806
:102D9000FCE7C046BA6693400000204210B503002D
:102DA0007F2800D97F2080B2002B08D008F01FFEBA
:102DB000044908F0C8FD044908F0AAFD10BD024806
:102DC000FCE7C046C56613410000A04210B50300F1
:102DD0007F2800D97F2080B2002B05D008F007FEA5
:102DE000024908F09AFD10BD0020FCE70000FE42F9
:102DF000F8B5CE46474680B50300C1788A0937D07A
:102E0000012A17D0022A07D00026371C0023994632
:102E100098460025002447E04178090202780A43D9
:102E20009205940D002A23D1A146A0462500002634
:102E3000371C39E0807804025E78320022431205A4
:102E4000140D002A67D01B789A074ED17F220240CA
:102E5000904649007E252940C5090D43F201FF2413
:102E600014409B081C43730899460026371C1BE03E
:102E70001C78E2073DD564085A78D10078200840D4
:102E800081469978C90008250D4052091543ED0087
:102E9000254E0027002290465A78D20601D50022FE
:102EA00091469B789B073CD40021381C08F07CFDA0
:102EB000002803D02000FFF771FF071C0021301C01
:102EC00008F072FD002803D04046FFF74FFF061CB4
:102ED0004846FFF77BFF041C2800FFF777FF031C21
:102EE000321C211C381CFDF715FCC0BCB946B0468D
:102EF000F8BD620890465A78D10078200840814693
:102F00009978C90008250D4052091543ED000026A7
:102F1000064F0024C0E7A146A04625000026371C26
:102F2000C2E70025C0E7C046000020430000A043E0
:102F30000A4B01221A7000225A7003329A70084A12
:102F4000117AD970D1791971917959715179997131
:102F50001179D971D2781A727047C046882600203C
:102F6000201B002010B50400FFF7A4FE8120FFF70E
:102F7000ABFE012C09D0064B1C70064B1978402380
:102F8000034A00200BF0FAFC10BDFFF7D1FFF4E775
:102F900088260020D535002070B586B06C462A4BB7
:102FA0000433220070CB70C270CB70C2022837D0BD
:102FB000032841D00023002500E00133052B10D861
:102FC000224AD2187D32FF3214780522D21A885C48
:102FD0008442F2D01D4AD2187D32FF321070012592
:102FE000EBE7002D19D18120FFF774FE184801236B
:102FF0008373164B1A7AC273DA7902749A7942741F
:103000005A7982741A79C274DB78037515301822E4
:10301000694608F0BFFE06B070BDFDF7C5FFE2E7E8
:103020008120FFF757FE0A48022383730F301022D6
:10303000084908F0AFFEEEE78120FFF74BFE044B96
:1030400003229A73E7E7C0463C160110201B0020BC
:10305000882600200827002070B504000E00150007
:10306000FFF728FE2120FFF72FFEFFF73FFEFFF7B7
:1030700051FE2000FFF734FE482C67D8A4003E4BD9
:103080001B599F468020FFF725FE00236AE0F07A57
:10309000431E9841C0B200F05FFFF27A374B1A70BE
:1030A0008020FFF717FEF0E731000C31F07AFFF7D0
:1030B00073FFEAE78020FFF70DFEF27A304B1A70BB
:1030C000E3E78220FFF706FEFFF72EFEDDE7802014
:1030D000FFF700FED9E79020FFF7FCFDF27BF17AC5
:1030E000307B00F037FAD0E7FEF759FECDE78020BD
:1030F000FFF7F0FDC9E78320FFF7ECFD6420FFF741
:1031000023FEC2E78020FFF7E5FDBEE78020FFF742
:10311000E1FDF27A0F231340033BDAB20C2A03D805
:103120009300184AD3589F460120FEF729FBACE7CD
:103130000320FAE70420F8E70520F6E70620F4E785
:103140000720F2E70820F0E70220EEE70023AB4279
:1031500002D201339BB2FAE78020FFF7BBFD94E770
:103160000133DBB21F2BFBD94023074A212100206A
:103170000BF004FC70BDC046E4140110D6350020ED
:10318000C80F0020081601108826002070B50C001A
:10319000150010280DD080280FD0012800D070BD58
:1031A000881CFFF725FEA07A2A002100FFF754FFB4
:1031B000F5E7881CFFF71CFEF1E74878FFF7D2FE21
:1031C000EDE70000094B1B780A2B07D00B2B09D029
:1031D000064B0A221A70054B18787047034B0B22D6
:1031E0001A70F8E7014B0C221A70F4E7C90F00209F
:1031F00070B504005D4B1B78002B04D15C4B1B7831
:10320000302B0BD070BD5B4B1A885B4B18785B4939
:10321000FFF7BCFF554B00221A70F3E7FFF74AFD9A
:103220003020FFF751FDFFF761FDFFF773FD544BB1
:103230001B78012B2DD0022B00D18AE02378514D31
:10324000AB706378EB70A3782B71E3786B712379A3
:103250000F210B40AB716079A3791B0203431B1153
:10326000EB71E3792B72237A19406972617AA37A40
:103270001B020B431B11AB72FFF7A4FFE872424B1A
:10328000197840232A0000200BF078FB02F0B8F9EF
:10329000B8E700F007FD83783A4D2B73C3786B7362
:1032A0000378AB734378EB7303792B7443796B74B6
:1032B000037AAB74437AEB7483792B75C3796B759E
:1032C000837AAB75C37AEB7500F0ECFC83782B76D0
:1032D000C3786B760378AB764378EB7603792B77FC
:1032E00043796B77037AAB77437AEB778279202344
:1032F000EA54C2790133EA54827A0133EA54C27A39
:103300000133EA5400F0CEFC82782423EA54C278D8
:103310000133EA5402780133EA5442780133EA5423
:1033200002790133EA5442790133EA54027A0133D3
:10333000EA54427A0133EA5482790133EA54C27979
:103340000133EA54827A0133EA54C27A0133EA54EF
:1033500074E70E4D280000F025F90A4B0C3307CD19
:1033600007C307CD07C307CD07C367E7D7350020DD
:10337000C80F0020C60F0020D8350020C826002026
:10338000D635002088260020D53500204032002088
:1033900010B5054B01241C70044B1870044B1A80A7
:1033A000044808F0F7FC10BDD7350020D8350020C0
:1033B000C60F0020C826002010B5024B181808F0D0
:1033C000E9FC10BD88260020502800D1B0E003D9C8
:1033D00060282FD0FF2010E0402800D9AAE0202844
:1033E00005D34B2924D88B00564AD3589F46002832
:1033F00003D0102800D09FE0002070479520FCE704
:103400000020FAE72A39504B59187D31FF310878EE
:10341000F3E704394C4B59187D31FF310878ECE75C
:103420000020EAE70020E8E76820E6E70020E4E77C
:103430000020E2E7A92979D88B00444AD3589F4657
:10344000FF20DAE70220D8E70120D6E72320D4E7DF
:103450000020D2E7B920D0E71A20CEE70120CCE740
:103460000020CAE74020C8E70020C6E74020C4E7A4
:103470000020C2E74020C0E70120BEE70020BCE7F3
:103480000120BAE70020B8E70120B6E70020B4E742
:103490003B20B2E73420B0E73B20AEE73420ACE776
:1034A0003B20AAE73420A8E73D39294B585CA4E724
:1034B0003D39274B585CA0E71A209EE71A209CE76D
:1034C0001A209AE75E2098E7012096E7502094E7BB
:1034D000FD2092E7002090E700208EE7C6208CE7D1
:1034E0000F208AE70F2088E7302086E7612084E7F5
:1034F000AE2082E7902080E7D9207EE7D4207CE7C9
:1035000014207AE7542078E7412076E7152074E705
:10351000542072E7C72070E779206EE79C206CE7A3
:1035200033206AE7362068E7632066E7002064E717
:10353000002062E7FF2060E7FF205EE722205CE7D3
:1035400003205AE758160110201B0020881701108D
:1035500078350020F0B58BB006000F00150008A9E3
:103560000F70487000248C70CC700A7105220E20F8
:10357000FFF722FF00941A22002101A808F004FCA2
:1035800007E03919C9B23000FFF71EFF6B46185526
:103590000134A542F5DC2A0069461320FFF70CFF31
:1035A0000BB0F0BDF0B5DE4657464E464546E0B599
:1035B00085B004008379032293430222134383716D
:1035C0000125002601E00135EDB2032D0CD8724B28
:1035D000AA00D058B200D1584900490808F002FAB0
:1035E0000028F0D02E00EEE7032333409A00A379A1
:1035F0000C218B431343A371002509E06749404622
:1036000008F0A1F9AF0008F019FA01ABD851013563
:10361000022D15DC72190132032313405E4F9B000B
:10362000D8599D21C90508F08EF98046B300D859B4
:10363000002108F0C1F90028E0D1FE218905DEE76C
:10364000019B9B12DB02D90A0F2211400901A079CC
:1036500002400A43A271D90BE171D90D2172DB0F2F
:10366000012601210B40607AB04303436372029B41
:103670009D127F20824605406F00657A0D403D43D4
:1036800065725B149B049B0CA3721B0A3F273B4093
:10369000E57A403885432B43E372039B9A129446A4
:1036A000032503226046104080018446E07A0740EB
:1036B00060460743E7721B135B035F0BA774580D4B
:1036C000E0745B0F0720804603409B46207D8446C4
:1036D0000720814660464B469843030058461843EE
:1036E0002075C3B240460340237500236375A3755C
:1036F000E37D18308343E375E77D1F233B40E3758B
:103700000023A3772700E37FAB43E377DBB21340CB
:10371000E3771E37BB78B343BB701F36A35D0B4006
:10372000A35521239C46E35C5F36B3436046235494
:10373000194E33691940C9018946205C5146014040
:10374000080049460143604621545B089B059B0DD8
:103750003B711B0A13407979A9430B437B712323E7
:10376000E15C0A400C210A43E254B38AA3701B0AAD
:10377000E370F38A23701B0A6370338B23711B0A77
:10378000637133690833336105B0F0BCBB46B246A0
:10379000A946A046F0BDC046CC0F0020000080BF67
:1037A000F0B5DE4657464E464546E0B585B00400C6
:1037B0000D00C3689A46CE68311C181C08F0C3F887
:1037C000071C236898462B689B46191C404608F046
:1037D000BAF8011C381C08F096F8071C63686A6880
:1037E0009146111C0093181C08F0ADF8011C381C00
:1037F00008F089F80190A768AD68291C381C08F00A
:10380000A2F8011C019808F07EF801905946504634
:1038100008F099F802904146301C08F094F8011C19
:10382000029808F075F80290291C009808F08BF8AF
:10383000011C029808F06CF80290391C484608F008
:1038400082F8011C029808F05EF802904946504642
:1038500008F079F80390291C404608F074F8011C20
:10386000039808F050F803900099301C08F06BF8AA
:10387000011C039808F04CF80390391C584608F0D6
:1038800062F8011C039808F043F80390291C504685
:1038900008F059F8051C4946404608F054F8011C48
:1038A000281C08F035F8051C0099584608F04BF81C
:1038B000011C281C08F027F8051C391C301C08F0D6
:1038C00042F8011C281C08F023F8019BE360029BCE
:1038D0002360039B6360A06005B0F0BCBB46B246AA
:1038E000A946A046F0BD70B504000168081C08F0A8
:1038F0002AF8051C6168081C08F025F8011C281C22
:1039000008F006F8051CA168081C08F01CF8011C4A
:10391000281C07F0FDFF051CE168081C08F013F8DF
:10392000011C281C07F0F4FF08F0CCF8011CFE2055
:10393000800507F0F2FF051C011C206808F003F861
:103940002060291C606807F0FEFF6060291CA068E9
:1039500007F0F9FFA060291CE06807F0F4FFE060C1
:1039600070BD0000F0B5DE4657464E464546E0B510
:103970008DB08046944A934600911268881A08F0E8
:1039800036F8041C4246127A4146487A0002104337
:103990000004001408F030F88C4907F0D4FF8C497B
:1039A00007F0BBFF08F084F88A4A8B4B06F02FFF24
:1039B00000228A4B06F00DFF0022894B06F009FF1A
:1039C00006000F00201C08F073F804000D00020030
:1039D0000B003000390006F01AFF06F0DDFF8246CA
:1039E000424692794146C87900021043000400140F
:1039F00008F002F8754907F0A6FF754907F08DFF3A
:103A000008F056F8734A744B06F001FF0022734B1E
:103A100006F0DFFE0022724B06F0DBFE02000B0018
:103A20002000290006F0F3FE06F0B6FF814642466C
:103A3000927A4146C87A000210430004001407F04D
:103A4000DBFF624907F07FFF614907F066FF08F07E
:103A50002FF8604A604B06F0DAFE00225F4B06F05A
:103A6000B8FE00225E4B06F0B4FE02000B00200000
:103A7000290006F0CCFE06F08FFF051C514650468B
:103A800007F061FF041C4946484607F05CFF011C33
:103A9000201C07F03DFF041C291C0195281C07F081
:103AA00052FF011C201C07F033FF08F001F804004E
:103AB0000D0002000B0006F0AAFE06000F00002217
:103AC000484B0296039706F084FE06000F00002282
:103AD000454B2000290006F07CFE02000B00300060
:103AE000390006F064FE0022404B06F069FE060035
:103AF0000F0000223E4B0298039906F06AFE0290E6
:103B000003910022FF239B052000290006F07FFE81
:103B100002000B000298039906F049FE0022354B83
:103B200006F04EFE04000D001C22002105A808F03E
:103B30002BF9504607F0BCFF32003B0006F067FE51
:103B400006F02AFF0590484607F0B2FF32003B001E
:103B500006F05DFE06F020FF0690019807F0A8FF32
:103B600032003B0006F053FE06F016FF07902000DF
:103B7000290006F011FF08901F4C05A92000FFF74F
:103B80000FFE2000FFF7AFFE4246117853781B026C
:103B90000B431B041B14A3829178D3781B020B43A5
:103BA0001B041B14E382117953791B020B431B0482
:103BB0001B1423835A46009B13600DB0F0BCBB4618
:103BC000B246A946A046F0BDB83200200000FA4433
:103BD00000FEFF46182D4454FB210940008066403A
:103BE00080842E410000AE40000048400000E03FCD
:103BF000000078400000F03FCC0F0020F0B5C64632
:103C000000B504008846234923480CF015FD002820
:103C1000F9D0224E3368581C032106F059FB257851
:103C2000627812021E4F4800401883005B182A4336
:103C3000FA54120AFB185A70A078E2781202024372
:103C40009A70120ADA7020796279120202431A71AC
:103C5000120A5A71A079E279120202439A71120A89
:103C6000DA71207A627A120202431A72120A5A72C6
:103C7000A07AE27A120202439A72120ADA72316070
:103C800041462000FFF76EFE03480CF0A5FC80BC07
:103C9000B846F0BDF8220020D0190020F422002000
:103CA000CC22002010B5094909480CF0C5FC0028B9
:103CB000F9D0084B1C6806480CF08EFC6000001917
:103CC00080000019044B181810BDC046FC220020CB
:103CD000D0190020F4220020CC2200204118CB0F64
:103CE0005B185B1080225202914204DA044A91422E
:103CF00003DB18B270470348FCE70348FAE7C04605
:103D0000FFFFFEFFFF7F00000080FFFF70B5284827
:103D1000FEF702F8274D06220021280008F034F8AB
:103D2000A81D0622002108F02FF8234B01221A704B
:103D3000224BFA2292011A60214B00221A70214E66
:103D4000214C31002000FCF7E1FC0023E25E9C3DA9
:103D50009C23EA540223E25E9D23EA540423E25E9C
:103D60009E23EA540623E25E9F23EA540823E25E80
:103D7000A023EA540A23E25EA123EA540023F25E60
:103D8000A223EA540223F25EA323EA540423F25E40
:103D9000A423EA540623F25EA523EA540823F25E24
:103DA000A623EA540A23F25EA723EA5470BDC04654
:103DB0000000FFFFBC1B0020C3350020C8220020EC
:103DC000C4350020B82200209822002010B5084AEF
:103DD000E2235B00D05C01214942FDF72FFFFDF794
:103DE000DDF8FDF7E1F8034B00221A7010BDC04664
:103DF000201B0020C3350020F8B552495248FCF77B
:103E000085FC524B1B78002B00D160E0504C9C2568
:103E10004D4E0023F15E6057FFF760FF605501359E
:103E20000223F15E6057FFF759FF60550135042307
:103E3000F15E6057FFF752FF605501350623F15ED2
:103E40006057FFF74BFF605501350823F15E60575F
:103E5000FFF744FF605501350A23F15E6057FFF715
:103E60003DFF6055A227374D0023E95EE057FFF77D
:103E700035FFE05501370223E95EE057FFF72EFFDB
:103E8000E05501370423E95EE057FFF727FFE055CF
:103E900001370623E95EE057FFF720FFE0550137C1
:103EA0000823E95EE057FFF719FFE05501370A23C1
:103EB000E95EE057FFF712FFE055002333732B73E1
:103EC000244A1368013B1360002B37D0F8BD1E4A0B
:103ED0000023D05E1E4B9C2158540221505E9D2130
:103EE00058540421505E9E2158540621505E9F2153
:103EF00058540821505EA02158540A21515EA12235
:103F00009954104A0021505EA22158540221505E5B
:103F1000A32158540421505EA42158540621505E18
:103F2000A52158540821505EA62158540A21515EFB
:103F3000A7229954054BA63A1A70C7E7FFF746FF28
:103F4000C4E7C046B822002098220020C4350020D3
:103F5000201B0020C8220020014B18707047C0466B
:103F6000C5350020F0B5C64600B504004C4B1B78A3
:103F7000002B06D14B4B1B78002B05D180BCB846DB
:103F8000F0BDFFF739FFF9E7FA21474A8900FDF74D
:103F900052FF0028F2D0454D29004548FCF7B6FBFA
:103FA0002B7B002B03D0424B1B7B002B0AD1404BB9
:103FB0001B7B002B00D06EE000233D4A13733B4A6D
:103FC0001373DBE73A4B984618883A4D9C23EB561F
:103FD0009BB2C01A354F3988A223EB569BB2C91A3F
:103FE00009B200B2FFF77AFE334E3080434658885C
:103FF0009D23EB569BB2C01A7988A323EB569BB244
:10400000C91A09B200B2FFF769FE7080434698886A
:104010009E23EB569BB2C01AB988A423EB569BB2E1
:10402000C91A09B200B2FFF759FEB0804346D888DA
:104030009F23EB569BB2C01AF988A523EB569BB27F
:10404000C91A09B200B2FFF749FEF0804346188949
:10405000A023EB569BB2C01A3989A623EB569BB21C
:10406000C91A09B200B2FFF739FE308143465889B8
:10407000A123EB569BB2C01A7989A723EB569BB2BA
:10408000C91A09B200B2FFF729FE70812100300081
:10409000FFF7B4FD90E721000548FFF7AFFD8BE780
:1040A000C3350020C5350020F8310020B82200209B
:1040B00098220020201B0020A822002004281ED0C7
:1040C0000CDC012816D000280FDD0238C0B2012810
:1040D0000BD80D4B0B60083313600AE0052804D1A0
:1040E0000A4B0B600833136003E0094B0B60083385
:1040F00013607047074B0B6008331360F9E7064BFA
:104100000B6008331360F4E7681C0020881C002053
:10411000481C0020581C0020781C002030B50F22BD
:104120000D780F231D40047894432C4304704C7881
:104130001C40250104781C402C4304708D781D40E0
:10414000447894432C434470CC781C402501447837
:104150001C402C4344700D791D40847894432C43BB
:1041600084704C791C40250184781C402C43847059
:104170008D791D40C47894432C43C470CC791C4085
:104180002501C4781C402C43C4700D7A1D4004796D
:1041900094432C4304714C7A1C40250104791C4043
:1041A0002C4304718D7A1D40447994432C4344710F
:1041B000CC7A1C40250144791C402C4344710D7B72
:1041C0001D40847994432C4384714C7B1C40250111
:1041D00084791C402C4384718D7B1D40C4799443A9
:1041E00022002A43C271CA7B1A401201C1790B40D6
:1041F0001343C37130BD0B781B071B0F03700B7883
:104200001B0943704B781B071B0F83704B781B09EE
:10421000C3708B781B071B0F03718B781B094371CD
:10422000CB781B071B0F8371CB781B09C3710B79EC
:104230001B071B0F03720B791B0943724B791B077A
:104240001B0F83724B791B09C3728B791B071B0FE2
:1042500003738B791B094373CB791B071B0F837384
:10426000CB791B09C373704770B50400144D154A10
:104270002900FFF723FF2B68134A11685268196061
:104280005A60042C12D0052C15D0032C09D00D4BEC
:104290001B6800221A800A4B19680C48FFF7ABFF15
:1042A00070BD084B1B680A4A1A80F4E7054B1B686F
:1042B000084A1A80EFE7034B1B68074A1A80EAE7AF
:1042C0005024002040270020701A011034240020C0
:1042D00000E1FFFF00C0FFFF00CAFFFF10B50E4B5B
:1042E00019600E4B1A600E4B18700E4C0E4A2100CE
:1042F000FFF7E4FE21680D4C2000FFF77CFFE37A16
:104300000B3B5A1E93410A4A1370637A093B5A1EAB
:104310009341084A137010BDE81D0020EC1D0020D9
:10432000C8350020502400204027002034240020DD
:10433000C7350020C6350020024ABC235B00D0549C
:104340007047C046201B002010B5044B00221A7095
:10435000034B19680348FFF74EFF10BDBC35002022
:10436000502400203424002070B590B00500384C53
:10437000384E22003100FFF7A1FE31683648FFF7C2
:104380003AFFFFF7E1FF002300933C22002101A840
:1043900007F0FAFCA6236A461370557033681A7842
:1043A0001207120F69468A701A781209CA705A7871
:1043B0001207120F0A715A7812094A719A78120775
:1043C000120F8A719A781209CA71DA781207120FDD
:1043D0000A72DA7812094A721A791207120F8A726F
:1043E0001A791209CA725A791207120F0A735A7986
:1043F00012094A739A791207120F8A739A7912096D
:10440000CA73DA791207120F0A74DB791B094B742D
:10441000226813881B0A8B741388CB740F4BBC2241
:1044200052009A5C0A75BD2252009B5C4B75FA20C3
:10443000000101F0EBFE002801D110B070BD00209A
:104440000AF048FD4022694600200AF025FDF4E705
:10445000342700203027002020270020201B0020A8
:1044600070B50A0000210F2937D803000B41DB0784
:1044700014D40131C9B2F6E70133DBB20F2B0FD8E8
:104480002A4AD05C2A4A12789042F5D1294A146807
:1044900001209840228802432280EDE70023EDE7C7
:1044A000224C234803786354224B1D6801228A4022
:1044B0002B8893432B8002781F4807F0D9FD1F4BB0
:1044C00000221A701E4B18682100FFF727FE1D4BB3
:1044D00000201856FFF748FF70BD002AFCD00024CA
:1044E00001E00134E4B20F2C14D8104B1A5D104BCC
:1044F0001B789A42F5D12100134807F0B9FD0D4B06
:1045000019680122A2400B8813430B800B4B002239
:104510001A70E6E70A4B18680449FFF7FFFD094BDC
:1045200000201856FFF720FFD6E7C04620270020BE
:10453000BB35002034270020301A0110BC35002084
:1045400030270020D93500204C1A011070B5040026
:104550000D00084E084A3100FFF7B0FD31680748EA
:10456000FFF749FE064B1C70064B1D70064B0122DF
:104570001A7070BD3027002034270020202700202B
:10458000D9350020BB350020BC35002070B5D14B9B
:1045900000221A809A70D04B1B78002B16D0CF4B7C
:1045A0001A6893789B06D90F002B06DA0023137044
:1045B0005370CA4B1B6800229A70C84B1B681A784C
:1045C000587800021043FFF74BFF70BD01F024FB49
:1045D000002826D0C14B19688A780124A2438A702A
:1045E00019688A78022082438A7019684A781025EF
:1045F000AA434A7019684A781035AA434A70196864
:104600000A78A2430A7019680A7882430A70196806
:104610000A78023082430A701A68137808218B43A3
:104620001370AC4B00229B5EAD4A12685178C906EC
:1046300000D527E1A94909684978C906C90FA948E1
:10464000007B814009B20B43A2490B805178890657
:1046500000D519E1A149096849788906C90FA1481F
:10466000407B814009B20B439A4C23809B490968E7
:1046700088788007C00F4000A5780226B5432843FC
:10468000A0708878C007C50FA078013EB0432843CA
:10469000A0701078C00700D5F8E00878C007C00FF8
:1046A000904C2478A04000B203438A4803801078DD
:1046B000800700D5ECE008788007C00F894C64784B
:1046C000A04000B20343834803801078400700D520
:1046D000E0E008784007C00F824CA478A04000B208
:1046E00003437C4803801078000700D5D4E00878A5
:1046F0000007C00F7B4CE478A04000B2034375482C
:1047000003801078C00600D5C8E00878C006C00F46
:10471000744C2479A04000B203436E4803801078A3
:10472000800600D5BCE008788006C00F6D4C647927
:10473000A04000B20343674803801078400600D5CC
:10474000B0E008784006C00F664CA479A04000B2E3
:104750000343604803801078C00900D0A4E00878C3
:10476000C009604CE479A04000B20343594803807B
:104770005078C00700D599E04878C007C00F594C61
:10478000247AA04000B20343524803805078400787
:1047900000D58DE048784007C00F524CA47AA04065
:1047A00000B203434B4803805078800700D581E076
:1047B00048788007C00F4B4C647AA04000B2034396
:1047C00098B2444C2080800576D54748414DEC1C7A
:1047D000E870050A65700025A570000EE07050783D
:1047E00080076BD448788007C00F3E4C647AA040A5
:1047F00000B20343374803805078000760D44878FC
:104800000007C00F374CE47AA04000B2034398B2CF
:10481000304C2080000555D533482E4DEC1DE871F5
:10482000050A65700025A570000EE070507800073D
:104830004AD448780007C00F2A4CE47AA04000B25E
:10484000034324480380507840063FD4487840060C
:10485000C00F244CA47BA04000B203431D4803803A
:104860005278D20934D14A78D2091E49C97B8A408C
:1048700012B2184913430B801C4B18680C2207F026
:1048800089FAA2E60021DEE60021ECE600200BE733
:10489000002017E7002023E700202FE700203BE758
:1048A000002047E7002053E700205EE700206AE78A
:1048B000002076E7002082E7002087E7002098E7C5
:1048C0000020A3E70020A8E70020B9E70020C4E704
:1048D0000022CEE744240020BC350020E81D002043
:1048E0004027002034240020FF0F0000EC1D002092
:1048F00080231B01136053609360D36070470000F6
:1049000010B50011084A1378991C084C6054013303
:10491000DBB213703D2B01D8002010BD1300002224
:104920001A700120F9E7C046C23500203826002061
:1049300010B50C00FA213D4A8900FDF77CFA0028E9
:104940001DD03B4B1B78002B12D13A4B1B78002B10
:1049500060D123680B3BFF3B374A93422BD9374B3F
:104960001C60344B01221A70354B00221A7006E08D
:10497000324B1B681868FFF7C3FF002800D110BD39
:10498000304BA5221A702E4A12785A70FA20000174
:1049900001F03CFC002805D10023254A1370254A6C
:1049A0001370ECE74022274900200AF075FA002036
:1049B0000AF090FAF0E763680B3BFF3B1E4A934214
:1049C00008D904341D4B1C6001231A4A13701C4A79
:1049D0001370D4E7A3680B3BFF3B174A934209D9F6
:1049E0000834164B1C60134B01221A70144B013211
:1049F0001A70C4E7E3680B3BFF3B0F4A9342BED9F2
:104A00000C340E4B1C600B4B01221A700C4B023203
:104A10001A70B4E7094B1B681B680B3BFF3B064A47
:104A20009342ACD8024B01221A70A8E7183200203A
:104A3000BD350020C0350020EB0D00006C34002097
:104A4000D33500203826002070B5041C0D000B78EB
:104A5000002B0AD0CE68011C301C06F0BBFF0028DA
:104A600004D06868211C06F06EFF70BD311C201C4C
:104A700006F049FFA96806F066FF024906F048FF04
:104A8000F3E7C0460000B44170B506F03CFF4000BB
:104A9000400807F00DF804000D0002000B00002094
:104AA000054905F084FE02000B00200029000BF0F0
:104AB000EBFD05F071FF70BD0080764070B5061CFF
:104AC0000C1C151C111C201C06F07CFF00280FD0AC
:104AD000311C201C06F076FF002807D0311C281C52
:104AE00006F078FF002802D0012000E0002070BD11
:104AF000311C201C06F066FF002807D1311C281C41
:104B000006F068FF002803D00120F0E70120EEE75F
:104B10000020ECE7F8B5071C0E000024002503E098
:104B2000002206E00134E4B2072C0DD8062CF7D899
:104B3000621CA3009200B258F158381CFFF7BEFF68
:104B40000028EFD02500EDE72800F8BD10B506F0ED
:104B5000AFFF0022104B06F05DF805F01DFF041CAE
:104B6000002106F029FF00280FD1201C06F0A0FF2D
:104B700000220A4B05F02DFE05F0D2FEC217520F9F
:104B8000801807231840801A10BD0549201C06F024
:104B9000BFFE041CE9E7C046008076400080464026
:104BA0000000B44310B506F0B3FE041C0B4906F038
:104BB00019FF002806D00949201C06F0A4FE041C99
:104BC000201C10BD0021201C06F0F6FE0028F7D0A6
:104BD0000249201C06F09CFE041CF1E70000B443CF
:104BE00070B5CD1A801A06F007FF041C280006F0E5
:104BF00003FF211C06F078FF114906F0A4FE06F021
:104C000057FF104A104B05F0E4FD05F0C5FE041CEB
:104C1000002106F0D1FE00280BD10C49201C06F023
:104C2000D9FE00280AD00949201C06F06CFE041C9D
:104C300004E00649201C06F06BFE041C201C70BD1D
:104C400000003443182D4454FB2109400000B443B4
:104C5000F8B50C0017001E0006F0CEFE051C38004B
:104C600006F0CAFE011C281C06F04DFE051C2000A3
:104C700006F0C2FE041C300006F0BEFE011C201C23
:104C800006F041FE041C291C281C06F05CFE051CD5
:104C9000211C201C06F057FE011C281C06F038FEC3
:104CA00006F010FFF8BD0000F8B50F00160006F082
:104CB000FFFE0B4A0B4B05F0AAFD05F06DFE06F05A
:104CC000F7FE04000D0005F07DFE05F065FE38607E
:104CD0002000290005F08CFE05F05EFE3060F8BD76
:104CE000399D52A246DF913FF0B5DE4657464E460B
:104CF0004546E0B583B080468B4615001F00110085
:104D0000FFF708FF040006285CDC461CA300994658
:104D1000EB589A46B600A959181CFFF7B5FE051CBA
:104D200051464046FFF7B0FE8046291C06F0F5FDCF
:104D3000051C4B46FB589A46011CFE20800506F0D8
:104D4000E2FD011C504606F0FEFD8246B859291CC2
:104D500006F0F9FD011C504606F0DAFD051C0C9B1F
:104D60004A469858414606F0EEFD031C22010D9973
:104D700089180D98825C002A03D0181CFFF764FE86
:104D8000031CA400304AA058191CFFF70BFF002693
:104D9000019600966A4601A9FFF786FF5946281C2E
:104DA00006F0D1FD041C311C06F006FE00280BD1D4
:104DB0008A21C905201C06F015FE002805D08A248A
:104DC000E40502E00026A1E700240199201C06F07A
:104DD000BAFD051C0190211C009806F0B4FD00905E
:104DE0008A21C905281C06F093FD06F005FF06F090
:104DF00025FE002823DB80235B01984200DB13485B
:104E000006F0FAFD0E9B18608A21C905009806F08D
:104E10007FFD06F0F1FE06F011FE002811DB802375
:104E20005B01984200DB094806F0E6FD0F9B186025
:104E300003B0F0BCBB46B246A946A046F0BD002078
:104E4000E0E70020F2E7C046781A0110FF0F0000EB
:104E5000F8B507000E00002409E0A500795975197E
:104E60008A20C00506F059FD28600134E4B2072C01
:104E7000F3D9F8BDF8B505000E0000240DE00023BD
:104E8000A7009B00E958E859FFF7FEFD011C064802
:104E900006F043FDF0510134E4B2072C03D8062C90
:104EA000EDD8631CECE7F8BD00003442F0B5C6460F
:104EB00000B580460F00002419E02601BE19012329
:104EC00033702868164906F023FD051CF060011CAC
:104ED000134806F022FD7060291C124806F013FDED
:104EE000011C0F4806F019FDB0600134E4B2072C34
:104EF00012D8A50045440021286806F055FD002879
:104F0000DBD02301FB1800221A70054ADA60FE226A
:104F100092055A609A60E8E780BCB846F0BDC0468A
:104F20000000B441000034420A4AD3685B005B10C1
:104F300009490B6053695B005B1008490B601369FA
:104F40005B005B1006490B6093695B005B10054AD0
:104F500013607047201B0020782600208026002048
:104F60007C2600208426002010B5054B1B68054ACE
:104F700012680549096805480068FCF7C7F810BDC4
:104F800084260020802600207C2600207826002011
:104F900010B5104C10492000FFF76CFF20002030A6
:104FA0000E49FFF767FF200040300D49FFF750FF23
:104FB000200060300B49FFF74BFF20006930FF30C5
:104FC0000949FFF773FF20008930FF300749FFF7D9
:104FD0006DFF10BD3C1B0020E80F002028100020B2
:104FE00008100020481000200023002090230020FB
:104FF00010B50E4B00221A800D4C203200212000EB
:1050000006F0C2FE200020302022002106F0BCFE67
:10501000200040382022002106F0B6FE2000203873
:105020002022002106F0B0FE10BDC046B23500209F
:105030007C1B0020F0B5DE4657464E464546E0B59F
:1050400083B004005F4B9B465F4B9A465B461B68F0
:105050005246126841680068FFF7C2FD071C5B4BAF
:1050600099465B4D1B682A68E168A068FFF7B8FDA8
:1050700080460190574E311C0097381CFFF792FD77
:10508000071C311C4046FFF78DFD061C381CFFF73E
:105090005DFD0700301CFFF759FD06005B461B68ED
:1050A0005246126861682068FFF7D2FD82464B467F
:1050B0001B682A68E168A068FFF7CAFD804600986F
:1050C00006F0F6FC0022444B05F0A4FD05F064FC5C
:1050D000041CFE21890506F06FFC002805D13F491C
:1050E000201C06F07FFC002822D03A0016329200E5
:1050F0003B4B9B185868514606F05EFC002817D0C1
:105100003849504606F06EFC002811D0344A3B0066
:1051100016339B00D31851465960BB1D9B00D21813
:10512000009B53600122BA402F490B8813430B8028
:10513000019806F0BDFC0022274B05F06BFD05F041
:105140002BFC041CFE21890506F036FC002805D145
:105150002249201C06F046FC002824D032001E32D2
:1051600092001F4B9B185868414606F025FC00280A
:1051700019D01C49404606F035FC002813D0184AC7
:1051800033001E339B00D3184146596033000E3361
:105190009B00D218019B536008360122B24012498D
:1051A0000B8813430B80104B1888104B9C466044AF
:1051B00043425841C0B203B0F0BCBB46B246A94618
:1051C000A046F0BD7C260020782600208426002002
:1051D000802600200000B44100804640000030429C
:1051E000201B00200000FA42B23500200100FFFF22
:1051F000064B02681A60064B42681A60054B8268CB
:105200001A60C268044B1A607047C04678260020B6
:105210007C2600208026002084260020F0B5DE4673
:1052200000B584B0040000910192224B9B46224FAE
:105230001B683A6841680068FFF7D2FC02901F4E75
:105240001F4D33682A68E168A068FFF7C9FC039026
:105250005B461B683A6861682068FFF7F9FC071C29
:1052600033682A68E168A068FFF7F2FC041C15495E
:10527000381C06F0B7FB002809D11249201C06F0A3
:10528000B1FB00280CD104B080BCBB46F0BD029835
:10529000FFF75CFC0023009A1370019B1870F2E783
:1052A0000398FFF753FC0123009A1370019B1870B9
:1052B000E9E7C0467C2600207826002084260020CE
:1052C000802600200000FA42F0B5DE4657464E46E2
:1052D0004546E0B585B0040000910192294B9A46FD
:1052E000294D1B682A6841680068FFF779FC8146F0
:1052F000264E274F33683A68E168A068FFF770FCD4
:105300008046244B9B46191C4846FFF74BFC0290F5
:1053100059464046FFF746FC039053461B682A68EF
:1053200061682068FFF794FC051C33683A68E168FF
:10533000A068FFF78DFC041C1749281C06F052FBDF
:1053400000280CD11449201C06F04CFB00280FD17A
:1053500005B0F0BCBB46B246A946A046F0BD0298D7
:10536000FFF7F4FB0023009A1370019B1870EFE71E
:105370000398FFF7EBFB0123009A1370019B187051
:10538000E6E7C0467C260020782600208426002000
:10539000802600200000B4410000FA42F0B5DE464D
:1053A00057464E464546E0B585B00400334B9A4615
:1053B000334D1B682A6841680068FFF711FC81467D
:1053C0000190304E304F33683A68E168A068FFF7CB
:1053D00007FC80462D4B9B46191C4846FFF7E2FB15
:1053E000029059464046FFF7DDFB039053461B6889
:1053F0002A6861682068FFF72BFC814633683A68A9
:10540000E168A068FFF724FC041C2149484606F027
:10541000E9FA00280DD11E49201C06F0E3FA002805
:1054200019D1002005B0F0BCBB46B246A946A04643
:10543000F0BD0298FFF78AFB164A831D9B00D31824
:10544000019959601630800010184B464360FFF7F1
:105450009FFD0120E6E70398FFF778FB0D4A030064
:105460000E339B00D318414659601E30800010183F
:105470004460FFF78DFD0120D4E7C0467C26002064
:105480007826002084260020802600200000B441D9
:105490000000FA42201B0020F0B5DE4657464E467B
:1054A0004546E0B589B004000D00484B9B46484B8B
:1054B00099465B461B684A46126841680068FFF7D8
:1054C0008FFB8046434E444F33683A68E168A068DA
:1054D000FFF786FB82465B461B684A461268616896
:1054E0002068FFF7B5FB814633683A68E168A06839
:1054F000FFF7AEFB071C0023079306930593049365
:10550000364C06AB039307AB0293354B0193354BF7
:105510000093354B220049464046FFF7E5FB220049
:10552000203204AB039305AB0293304B0193304B15
:105530000093304B391C5046FFF7D6FB1C3C0F2321
:10554000E356002B25DB079806F078FA28602A4BF3
:10555000DB7C5BB2002B23DB069806F06FFA6860F9
:10556000254BDB7D5BB2002B21DB059806F066FA4C
:10557000A860214BDB7E5BB2002B1FDB049806F09A
:105580005DFAE86009B0F0BCBB46B246A946A04649
:10559000F0BD0799194806F0B6F906F04FFAD5E7BD
:1055A0000699164806F0AFF906F048FAD7E70599CC
:1055B000124806F0A8F906F041FAD9E704990F4815
:1055C00006F0A1F906F03AFADBE7C0467C26002097
:1055D0007826002084260020802600203C1B002006
:1055E00000230020E80F0020081000209023002056
:1055F0002810002048100020201B002000F07F45CC
:105600000023044A1370044A1370044A1370044AB6
:105610001370704780230020882300202826002054
:105620003026002010B5E1200004FCF775FBFFF7E1
:10563000DFFC0A4C20220021200006F0A5FB200000
:1056400020302022002106F09FFB0023044A137023
:10565000044A1370044B01221A7010BDA41C0020D0
:10566000B6350020B8350020B735002010B50B4CFA
:1056700020600B4801600B490A600B4C2360FFF768
:1056800053FCFFF785FC23685A7830231340302BF6
:1056900000D010BDFFF7C6FFFBE7C046B8200020D2
:1056A000BC200020C41D0020E41D002010B5084BC4
:1056B00000221A70FFF758FCFFF76AFC054AE22344
:1056C0005B00D05C01214942FCF7B8FA10BDC0462E
:1056D000B7350020201B002010B50A4B00221A709D
:1056E000FFF742FCFBF760FCC82002F059FDFFF712
:1056F0004FFC054AE2235B00D05C01214942FCF7E4
:105700009DFA10BDB7350020201B002010B5024BBC
:105710001868FFF743FE10BDB820002010B5124BEB
:105720001B78002B0CD1114B1868FFF761FD0E4B55
:1057300001221A700E4B1B689B789B0711D410BD79
:105740000A4B1868FFF776FC0028F3D0094B1B784A
:10575000002BEFD1074B01221A700748FCF7DCFA47
:10576000E8E7FFF7B9FFEAE7B8350020B8200020E6
:10577000E41D0020B63500200080008030B553685D
:10578000C51A80242401A04209D000241457002CFB
:105790000BD1002D06DD01231370086000E00C60C2
:1057A000506030BD01235B42F6E7002C04DD8342EC
:1057B000F6DA08605060F3E7002C01DB0860EFE7E1
:1057C0008342EDDD08605060EAE7000010B5030099
:1057D0000A00034908681900FFF776FD10BDC046AE
:1057E000B820002010B503000A000349086819001A
:1057F000FFF714FD10BDC046B8200020F0B5DE460E
:1058000057464E464546E0B585B004000D0080235E
:105810001B019B461A0041680068FFF719FA814690
:105820005B465A46E168A068FFF712FA8046824E4E
:10583000F1235B00F75A5B46D81B06F0DDF8824681
:10584000F3235B00F05A5B46181A06F0D5F883463E
:10585000F2235B00F05A80231B019C46604406F053
:10586000CBF8514606F059F80090F4235B00F05A4B
:1058700080231B019C46604406F0BEF8594606F0A2
:105880004CF80190380006F0B7F8061C494606F0BF
:10589000A1F800281AD080231B012B606B60664A98
:1058A000F3235B00D05A06F0A7F8071C414606F028
:1058B00091F8002864D080231B01AB60EB6005B039
:1058C000F0BCBB46B246A946A046F0BD311C4846D6
:1058D00006F019F8824680221201130061682068E0
:1058E000FFF77EF900260296039603AA02A9FFF7A6
:1058F000DBF95146009806F026F8071C311C06F02B
:105900005BF8002809D18A21C905381C06F06AF81D
:10591000002803D08A27FF0500E000270299381CE1
:1059200006F011F8061C0290391C039806F00BF8DB
:1059300003908A21C905301C05F0EAFF06F05CF9E6
:1059400006F07CF8002805DB80235B01984202DB2F
:105950003A4800E0002028608A21C905039805F034
:10596000D7FF06F049F906F069F8002805DB802327
:105970005B01984202DB314800E0002068608EE75E
:10598000391C404605F0BFFF804680221201E168C5
:10599000A0681300FFF724F900270297039703AAD2
:1059A00002A9FFF781F94146019805F0CCFF041CDC
:1059B000391C06F001F8002809D18A21C905201CEC
:1059C00006F010F8002803D08A24E40500E0002443
:1059D0000299201C05F0B7FF061C02900399201CB9
:1059E00005F0B1FF041C03908A21C905301C05F0A5
:1059F0008FFF06F001F906F021F8031E05DB802277
:105A00005201904202DB0D4B00E00023AB608A2183
:105A1000C905201C05F07CFF06F0EEF806F00EF834
:105A2000002805DB80235B01984202DB034800E08D
:105A30000020E86043E7C046201B0020FF0F000065
:105A400070B504001D4AC821FCF7F5F9002800D103
:105A500070BD1B4B1868FAF795FD1A4B1B78002B8D
:105A600002D0FFF75BFEF3E7174E154B18683100C5
:105A7000FFF712FD154D2A6831002000FEF738FFB0
:105A8000134C28682100FFF7B9FE124D124A29680D
:105A90002068FFF773FE29680831104AA068FFF7F5
:105AA0006DFE2B68191D0E4A6068FFF767FE2968B6
:105AB0000C31E0680B4AFFF761FEC9E700320020B5
:105AC000B8200020B73500205C330020C41D002022
:105AD000042C0020BC200020802300202826002049
